{
  "_format": "hh-sol-artifact-1",
  "contractName": "EasyAuction",
  "sourceName": "contracts/EasyAuction.sol",
  "abi": [
    {
      "inputs": [],
      "stateMutability": "nonpayable",
      "type": "constructor"
    },
    {
      "anonymous": false,
      "inputs": [
        {
          "indexed": true,
          "internalType": "uint256",
          "name": "auctionId",
          "type": "uint256"
        },
        {
          "indexed": false,
          "internalType": "uint96",
          "name": "soldAuctioningTokens",
          "type": "uint96"
        },
        {
          "indexed": false,
          "internalType": "uint96",
          "name": "soldBiddingTokens",
          "type": "uint96"
        },
        {
          "indexed": false,
          "internalType": "bytes32",
          "name": "clearingPriceOrder",
          "type": "bytes32"
        }
      ],
      "name": "AuctionCleared",
      "type": "event"
    },
    {
      "anonymous": false,
      "inputs": [
        {
          "indexed": true,
          "internalType": "uint256",
          "name": "auctionId",
          "type": "uint256"
        },
        {
          "indexed": true,
          "internalType": "uint64",
          "name": "userId",
          "type": "uint64"
        },
        {
          "indexed": false,
          "internalType": "uint96",
          "name": "buyAmount",
          "type": "uint96"
        },
        {
          "indexed": false,
          "internalType": "uint96",
          "name": "sellAmount",
          "type": "uint96"
        }
      ],
      "name": "CancellationSellOrder",
      "type": "event"
    },
    {
      "anonymous": false,
      "inputs": [
        {
          "indexed": true,
          "internalType": "uint256",
          "name": "auctionId",
          "type": "uint256"
        },
        {
          "indexed": true,
          "internalType": "uint64",
          "name": "userId",
          "type": "uint64"
        },
        {
          "indexed": false,
          "internalType": "uint96",
          "name": "buyAmount",
          "type": "uint96"
        },
        {
          "indexed": false,
          "internalType": "uint96",
          "name": "sellAmount",
          "type": "uint96"
        }
      ],
      "name": "ClaimedFromOrder",
      "type": "event"
    },
    {
      "anonymous": false,
      "inputs": [
        {
          "indexed": true,
          "internalType": "uint256",
          "name": "auctionId",
          "type": "uint256"
        },
        {
          "indexed": true,
          "internalType": "contract IERC20",
          "name": "_auctioningToken",
          "type": "address"
        },
        {
          "indexed": true,
          "internalType": "contract IERC20",
          "name": "_biddingToken",
          "type": "address"
        },
        {
          "indexed": false,
          "internalType": "uint256",
          "name": "orderCancellationEndDate",
          "type": "uint256"
        },
        {
          "indexed": false,
          "internalType": "uint256",
          "name": "auctionEndDate",
          "type": "uint256"
        },
        {
          "indexed": false,
          "internalType": "uint64",
          "name": "userId",
          "type": "uint64"
        },
        {
          "indexed": false,
          "internalType": "uint96",
          "name": "_auctionedSellAmount",
          "type": "uint96"
        },
        {
          "indexed": false,
          "internalType": "uint96",
          "name": "_minBuyAmount",
          "type": "uint96"
        },
        {
          "indexed": false,
          "internalType": "uint256",
          "name": "minimumBiddingAmountPerOrder",
          "type": "uint256"
        },
        {
          "indexed": false,
          "internalType": "uint256",
          "name": "minFundingThreshold",
          "type": "uint256"
        },
        {
          "indexed": false,
          "internalType": "address",
          "name": "allowListContract",
          "type": "address"
        },
        {
          "indexed": false,
          "internalType": "bytes",
          "name": "allowListData",
          "type": "bytes"
        }
      ],
      "name": "NewAuction",
      "type": "event"
    },
    {
      "anonymous": false,
      "inputs": [
        {
          "indexed": true,
          "internalType": "uint256",
          "name": "auctionId",
          "type": "uint256"
        },
        {
          "indexed": true,
          "internalType": "uint64",
          "name": "userId",
          "type": "uint64"
        },
        {
          "indexed": false,
          "internalType": "uint96",
          "name": "buyAmount",
          "type": "uint96"
        },
        {
          "indexed": false,
          "internalType": "uint96",
          "name": "sellAmount",
          "type": "uint96"
        }
      ],
      "name": "NewSellOrder",
      "type": "event"
    },
    {
      "anonymous": false,
      "inputs": [
        {
          "indexed": true,
          "internalType": "uint64",
          "name": "userId",
          "type": "uint64"
        },
        {
          "indexed": true,
          "internalType": "address",
          "name": "userAddress",
          "type": "address"
        }
      ],
      "name": "NewUser",
      "type": "event"
    },
    {
      "anonymous": false,
      "inputs": [
        {
          "indexed": true,
          "internalType": "address",
          "name": "previousOwner",
          "type": "address"
        },
        {
          "indexed": true,
          "internalType": "address",
          "name": "newOwner",
          "type": "address"
        }
      ],
      "name": "OwnershipTransferred",
      "type": "event"
    },
    {
      "anonymous": false,
      "inputs": [
        {
          "indexed": true,
          "internalType": "address",
          "name": "user",
          "type": "address"
        },
        {
          "indexed": false,
          "internalType": "uint64",
          "name": "userId",
          "type": "uint64"
        }
      ],
      "name": "UserRegistration",
      "type": "event"
    },
    {
      "inputs": [],
      "name": "FEE_DENOMINATOR",
      "outputs": [
        {
          "internalType": "uint256",
          "name": "",
          "type": "uint256"
        }
      ],
      "stateMutability": "view",
      "type": "function"
    },
    {
      "inputs": [
        {
          "internalType": "uint256",
          "name": "",
          "type": "uint256"
        }
      ],
      "name": "auctionAccessData",
      "outputs": [
        {
          "internalType": "bytes",
          "name": "",
          "type": "bytes"
        }
      ],
      "stateMutability": "view",
      "type": "function"
    },
    {
      "inputs": [
        {
          "internalType": "uint256",
          "name": "",
          "type": "uint256"
        }
      ],
      "name": "auctionAccessManager",
      "outputs": [
        {
          "internalType": "address",
          "name": "",
          "type": "address"
        }
      ],
      "stateMutability": "view",
      "type": "function"
    },
    {
      "inputs": [],
      "name": "auctionCounter",
      "outputs": [
        {
          "internalType": "uint256",
          "name": "",
          "type": "uint256"
        }
      ],
      "stateMutability": "view",
      "type": "function"
    },
    {
      "inputs": [
        {
          "internalType": "uint256",
          "name": "",
          "type": "uint256"
        }
      ],
      "name": "auctionData",
      "outputs": [
        {
          "internalType": "contract IERC20",
          "name": "auctioningToken",
          "type": "address"
        },
        {
          "internalType": "contract IERC20",
          "name": "biddingToken",
          "type": "address"
        },
        {
          "internalType": "uint256",
          "name": "orderCancellationEndDate",
          "type": "uint256"
        },
        {
          "internalType": "uint256",
          "name": "auctionEndDate",
          "type": "uint256"
        },
        {
          "internalType": "bytes32",
          "name": "initialAuctionOrder",
          "type": "bytes32"
        },
        {
          "internalType": "uint256",
          "name": "minimumBiddingAmountPerOrder",
          "type": "uint256"
        },
        {
          "internalType": "uint256",
          "name": "interimSumBidAmount",
          "type": "uint256"
        },
        {
          "internalType": "bytes32",
          "name": "interimOrder",
          "type": "bytes32"
        },
        {
          "internalType": "bytes32",
          "name": "clearingPriceOrder",
          "type": "bytes32"
        },
        {
          "internalType": "uint96",
          "name": "volumeClearingPriceOrder",
          "type": "uint96"
        },
        {
          "internalType": "bool",
          "name": "minFundingThresholdNotReached",
          "type": "bool"
        },
        {
          "internalType": "bool",
          "name": "isAtomicClosureAllowed",
          "type": "bool"
        },
        {
          "internalType": "uint256",
          "name": "feeNumerator",
          "type": "uint256"
        },
        {
          "internalType": "uint256",
          "name": "minFundingThreshold",
          "type": "uint256"
        }
      ],
      "stateMutability": "view",
      "type": "function"
    },
    {
      "inputs": [
        {
          "internalType": "uint256",
          "name": "auctionId",
          "type": "uint256"
        },
        {
          "internalType": "bytes32[]",
          "name": "_sellOrders",
          "type": "bytes32[]"
        }
      ],
      "name": "cancelSellOrders",
      "outputs": [],
      "stateMutability": "nonpayable",
      "type": "function"
    },
    {
      "inputs": [
        {
          "internalType": "uint256",
          "name": "auctionId",
          "type": "uint256"
        },
        {
          "internalType": "bytes32[]",
          "name": "orders",
          "type": "bytes32[]"
        }
      ],
      "name": "claimFromParticipantOrder",
      "outputs": [
        {
          "internalType": "uint256",
          "name": "sumAuctioningTokenAmount",
          "type": "uint256"
        },
        {
          "internalType": "uint256",
          "name": "sumBiddingTokenAmount",
          "type": "uint256"
        }
      ],
      "stateMutability": "nonpayable",
      "type": "function"
    },
    {
      "inputs": [
        {
          "internalType": "uint256",
          "name": "auctionId",
          "type": "uint256"
        },
        {
          "internalType": "bytes32",
          "name": "order",
          "type": "bytes32"
        }
      ],
      "name": "containsOrder",
      "outputs": [
        {
          "internalType": "bool",
          "name": "",
          "type": "bool"
        }
      ],
      "stateMutability": "view",
      "type": "function"
    },
    {
      "inputs": [],
      "name": "feeNumerator",
      "outputs": [
        {
          "internalType": "uint256",
          "name": "",
          "type": "uint256"
        }
      ],
      "stateMutability": "view",
      "type": "function"
    },
    {
      "inputs": [],
      "name": "feeReceiverUserId",
      "outputs": [
        {
          "internalType": "uint64",
          "name": "",
          "type": "uint64"
        }
      ],
      "stateMutability": "view",
      "type": "function"
    },
    {
      "inputs": [
        {
          "internalType": "uint256",
          "name": "auctionId",
          "type": "uint256"
        }
      ],
      "name": "getSecondsRemainingInBatch",
      "outputs": [
        {
          "internalType": "uint256",
          "name": "",
          "type": "uint256"
        }
      ],
      "stateMutability": "view",
      "type": "function"
    },
    {
      "inputs": [
        {
          "internalType": "address",
          "name": "user",
          "type": "address"
        }
      ],
      "name": "getUserId",
      "outputs": [
        {
          "internalType": "uint64",
          "name": "userId",
          "type": "uint64"
        }
      ],
      "stateMutability": "nonpayable",
      "type": "function"
    },
    {
      "inputs": [
        {
          "internalType": "contract IERC20",
          "name": "_auctioningToken",
          "type": "address"
        },
        {
          "internalType": "contract IERC20",
          "name": "_biddingToken",
          "type": "address"
        },
        {
          "internalType": "uint256",
          "name": "orderCancellationEndDate",
          "type": "uint256"
        },
        {
          "internalType": "uint256",
          "name": "auctionEndDate",
          "type": "uint256"
        },
        {
          "internalType": "uint96",
          "name": "_auctionedSellAmount",
          "type": "uint96"
        },
        {
          "internalType": "uint96",
          "name": "_minBuyAmount",
          "type": "uint96"
        },
        {
          "internalType": "uint256",
          "name": "minimumBiddingAmountPerOrder",
          "type": "uint256"
        },
        {
          "internalType": "uint256",
          "name": "minFundingThreshold",
          "type": "uint256"
        },
        {
          "internalType": "bool",
          "name": "isAtomicClosureAllowed",
          "type": "bool"
        },
        {
          "internalType": "address",
          "name": "accessManagerContract",
          "type": "address"
        },
        {
          "internalType": "bytes",
          "name": "accessManagerContractData",
          "type": "bytes"
        }
      ],
      "name": "initiateAuction",
      "outputs": [
        {
          "internalType": "uint256",
          "name": "",
          "type": "uint256"
        }
      ],
      "stateMutability": "nonpayable",
      "type": "function"
    },
    {
      "inputs": [],
      "name": "numUsers",
      "outputs": [
        {
          "internalType": "uint64",
          "name": "",
          "type": "uint64"
        }
      ],
      "stateMutability": "view",
      "type": "function"
    },
    {
      "inputs": [],
      "name": "owner",
      "outputs": [
        {
          "internalType": "address",
          "name": "",
          "type": "address"
        }
      ],
      "stateMutability": "view",
      "type": "function"
    },
    {
      "inputs": [
        {
          "internalType": "uint256",
          "name": "auctionId",
          "type": "uint256"
        },
        {
          "internalType": "uint96[]",
          "name": "_minBuyAmounts",
          "type": "uint96[]"
        },
        {
          "internalType": "uint96[]",
          "name": "_sellAmounts",
          "type": "uint96[]"
        },
        {
          "internalType": "bytes32[]",
          "name": "_prevSellOrders",
          "type": "bytes32[]"
        },
        {
          "internalType": "bytes",
          "name": "allowListCallData",
          "type": "bytes"
        }
      ],
      "name": "placeSellOrders",
      "outputs": [
        {
          "internalType": "uint64",
          "name": "userId",
          "type": "uint64"
        }
      ],
      "stateMutability": "nonpayable",
      "type": "function"
    },
    {
      "inputs": [
        {
          "internalType": "uint256",
          "name": "auctionId",
          "type": "uint256"
        },
        {
          "internalType": "uint96[]",
          "name": "_minBuyAmounts",
          "type": "uint96[]"
        },
        {
          "internalType": "uint96[]",
          "name": "_sellAmounts",
          "type": "uint96[]"
        },
        {
          "internalType": "bytes32[]",
          "name": "_prevSellOrders",
          "type": "bytes32[]"
        },
        {
          "internalType": "bytes",
          "name": "allowListCallData",
          "type": "bytes"
        },
        {
          "internalType": "address",
          "name": "orderSubmitter",
          "type": "address"
        }
      ],
      "name": "placeSellOrdersOnBehalf",
      "outputs": [
        {
          "internalType": "uint64",
          "name": "userId",
          "type": "uint64"
        }
      ],
      "stateMutability": "nonpayable",
      "type": "function"
    },
    {
      "inputs": [
        {
          "internalType": "uint256",
          "name": "auctionId",
          "type": "uint256"
        },
        {
          "internalType": "uint256",
          "name": "iterationSteps",
          "type": "uint256"
        }
      ],
      "name": "precalculateSellAmountSum",
      "outputs": [],
      "stateMutability": "nonpayable",
      "type": "function"
    },
    {
      "inputs": [
        {
          "internalType": "address",
          "name": "user",
          "type": "address"
        }
      ],
      "name": "registerUser",
      "outputs": [
        {
          "internalType": "uint64",
          "name": "userId",
          "type": "uint64"
        }
      ],
      "stateMutability": "nonpayable",
      "type": "function"
    },
    {
      "inputs": [],
      "name": "renounceOwnership",
      "outputs": [],
      "stateMutability": "nonpayable",
      "type": "function"
    },
    {
      "inputs": [
        {
          "internalType": "uint256",
          "name": "newFeeNumerator",
          "type": "uint256"
        },
        {
          "internalType": "address",
          "name": "newfeeReceiverAddress",
          "type": "address"
        }
      ],
      "name": "setFeeParameters",
      "outputs": [],
      "stateMutability": "nonpayable",
      "type": "function"
    },
    {
      "inputs": [
        {
          "internalType": "uint256",
          "name": "auctionId",
          "type": "uint256"
        }
      ],
      "name": "settleAuction",
      "outputs": [
        {
          "internalType": "bytes32",
          "name": "clearingOrder",
          "type": "bytes32"
        }
      ],
      "stateMutability": "nonpayable",
      "type": "function"
    },
    {
      "inputs": [
        {
          "internalType": "uint256",
          "name": "auctionId",
          "type": "uint256"
        },
        {
          "internalType": "uint96[]",
          "name": "_minBuyAmount",
          "type": "uint96[]"
        },
        {
          "internalType": "uint96[]",
          "name": "_sellAmount",
          "type": "uint96[]"
        },
        {
          "internalType": "bytes32[]",
          "name": "_prevSellOrder",
          "type": "bytes32[]"
        },
        {
          "internalType": "bytes",
          "name": "allowListCallData",
          "type": "bytes"
        }
      ],
      "name": "settleAuctionAtomically",
      "outputs": [],
      "stateMutability": "nonpayable",
      "type": "function"
    },
    {
      "inputs": [
        {
          "internalType": "address",
          "name": "newOwner",
          "type": "address"
        }
      ],
      "name": "transferOwnership",
      "outputs": [],
      "stateMutability": "nonpayable",
      "type": "function"
    }
  ],
  "bytecode": "0x60806040526000600955600a80546001600160401b03191660011790553480156200002957600080fd5b5060006200003662000086565b600080546001600160a01b0319166001600160a01b0383169081178255604051929350917f8be0079c531659141344cd1fd0a4f28419497f9722a3daafe3b4186f6b6457e0908290a3506200008a565b3390565b6143d9806200009a6000396000f3fe608060405234801561001057600080fd5b50600436106101985760003560e01c80637882deaf116100e3578063d73792a91161008c578063ec20d0bb11610066578063ec20d0bb14610a79578063f2fde38b14610c85578063f59c2f0614610cab57610198565b8063d73792a914610a4c578063e4a59ef414610a54578063e86dea4a14610a7157610198565b806391cfc1d4116100bd57806391cfc1d41461063e578063a7e7664414610841578063d225269c1461084957610198565b80637882deaf146104ad5780637ed18b70146105705780638da5cb5b1461061a57610198565b80633e12905f116101455780635cefb2911161011f5780635cefb2911461046657806363c699a41461046e578063715018a6146104a557610198565b80633e12905f1461036357806340b20b091461038857806355fc62d2146103b457610198565b80632199d5cd116101765780632199d5cd146102fa5780632b956ff7146103205780632e9936111461034657610198565b80630a4cd6c91461019d57806315d37b4b146102b857806319a50f49146102d5575b600080fd5b6102a660048036036101608110156101b457600080fd5b6001600160a01b03823581169260208101358216926040820135926060830135926bffffffffffffffffffffffff608082013581169360a08301359091169260c08301359260e081013592610100820135151592610120830135169190810190610160810161014082013564010000000081111561023157600080fd5b82018360208201111561024357600080fd5b8035906020019184600183028401116401000000008311171561026557600080fd5b91908080601f016020809104026020016040519081016040528093929190818152602001838380828437600092019190915250929550610d3d945050505050565b60408051918252519081900360200190f35b6102a6600480360360208110156102ce57600080fd5b50356112b4565b6102dd6112f9565b6040805167ffffffffffffffff9092168252519081900360200190f35b6102dd6004803603602081101561031057600080fd5b50356001600160a01b0316611309565b6102dd6004803603602081101561033657600080fd5b50356001600160a01b0316611418565b6102a66004803603602081101561035c57600080fd5b503561148d565b6103866004803603604081101561037957600080fd5b50803590602001356118bf565b005b6103866004803603604081101561039e57600080fd5b50803590602001356001600160a01b0316611b11565b6103d1600480360360208110156103ca57600080fd5b5035611c0d565b604051808f6001600160a01b031681526020018e6001600160a01b031681526020018d81526020018c81526020018b81526020018a8152602001898152602001888152602001878152602001866bffffffffffffffffffffffff168152602001851515815260200184151581526020018381526020018281526020019e50505050505050505050505050505060405180910390f35b6102dd611cb0565b6104916004803603604081101561048457600080fd5b5080359060200135611cc0565b604080519115158252519081900360200190f35b610386611ce1565b610557600480360360408110156104c357600080fd5b813591908101906040810160208201356401000000008111156104e557600080fd5b8201836020820111156104f757600080fd5b8035906020019184602083028401116401000000008311171561051957600080fd5b919080806020026020016040519081016040528093929190818152602001838360200280828437600092019190915250929550611db7945050505050565b6040805192835260208301919091528051918290030190f35b6103866004803603604081101561058657600080fd5b813591908101906040810160208201356401000000008111156105a857600080fd5b8201836020820111156105ba57600080fd5b803590602001918460208302840111640100000000831117156105dc57600080fd5b919080806020026020016040519081016040528093929190818152602001838360200280828437600092019190915250929550612274945050505050565b610622612439565b604080516001600160a01b039092168252519081900360200190f35b610386600480360360a081101561065457600080fd5b8135919081019060408101602082013564010000000081111561067657600080fd5b82018360208201111561068857600080fd5b803590602001918460208302840111640100000000831117156106aa57600080fd5b91908080602002602001604051908101604052809392919081815260200183836020028082843760009201919091525092959493602081019350359150506401000000008111156106fa57600080fd5b82018360208201111561070c57600080fd5b8035906020019184602083028401116401000000008311171561072e57600080fd5b919080806020026020016040519081016040528093929190818152602001838360200280828437600092019190915250929594936020810193503591505064010000000081111561077e57600080fd5b82018360208201111561079057600080fd5b803590602001918460208302840111640100000000831117156107b257600080fd5b919080806020026020016040519081016040528093929190818152602001838360200280828437600092019190915250929594936020810193503591505064010000000081111561080257600080fd5b82018360208201111561081457600080fd5b8035906020019184600183028401116401000000008311171561083657600080fd5b509092509050612448565b6102a661262a565b6102dd600480360360a081101561085f57600080fd5b8135919081019060408101602082013564010000000081111561088157600080fd5b82018360208201111561089357600080fd5b803590602001918460208302840111640100000000831117156108b557600080fd5b919080806020026020016040519081016040528093929190818152602001838360200280828437600092019190915250929594936020810193503591505064010000000081111561090557600080fd5b82018360208201111561091757600080fd5b8035906020019184602083028401116401000000008311171561093957600080fd5b919080806020026020016040519081016040528093929190818152602001838360200280828437600092019190915250929594936020810193503591505064010000000081111561098957600080fd5b82018360208201111561099b57600080fd5b803590602001918460208302840111640100000000831117156109bd57600080fd5b9190808060200260200160405190810160405280939291908181526020018383602002808284376000920191909152509295949360208101935035915050640100000000811115610a0d57600080fd5b820183602082011115610a1f57600080fd5b80359060200191846001830284011164010000000083111715610a4157600080fd5b509092509050612630565b6102a661269c565b61062260048036036020811015610a6a57600080fd5b50356126a2565b6102a66126bd565b6102dd600480360360c0811015610a8f57600080fd5b81359190810190604081016020820135640100000000811115610ab157600080fd5b820183602082011115610ac357600080fd5b80359060200191846020830284011164010000000083111715610ae557600080fd5b9190808060200260200160405190810160405280939291908181526020018383602002808284376000920191909152509295949360208101935035915050640100000000811115610b3557600080fd5b820183602082011115610b4757600080fd5b80359060200191846020830284011164010000000083111715610b6957600080fd5b9190808060200260200160405190810160405280939291908181526020018383602002808284376000920191909152509295949360208101935035915050640100000000811115610bb957600080fd5b820183602082011115610bcb57600080fd5b80359060200191846020830284011164010000000083111715610bed57600080fd5b9190808060200260200160405190810160405280939291908181526020018383602002808284376000920191909152509295949360208101935035915050640100000000811115610c3d57600080fd5b820183602082011115610c4f57600080fd5b80359060200191846001830284011164010000000083111715610c7157600080fd5b9193509150356001600160a01b03166126c3565b61038660048036036020811015610c9b57600080fd5b50356001600160a01b0316612730565b610cc860048036036020811015610cc157600080fd5b503561285c565b6040805160208082528351818301528351919283929083019185019080838360005b83811015610d02578181015183820152602001610cea565b50505050905090810190601f168015610d2f5780820380516001836020036101000a031916815260200191505b509250505060405180910390f35b6000610d993330610d7f6103e8610d79610d646009546103e861291590919063ffffffff16565b6bffffffffffffffffffffffff8f169061296f565b906129c8565b8f6001600160a01b0316612a2f909392919063ffffffff16565b6000886bffffffffffffffffffffffff1611610dfc576040805162461bcd60e51b815260206004820152601a60248201527f63616e6e6f742061756374696f6e207a65726f20746f6b656e73000000000000604482015290519081900360640190fd5b6000876bffffffffffffffffffffffff1611610e495760405162461bcd60e51b81526004018080602001828103825260238152602001806140ab6023913960400191505060405180910390fd5b60008611610e885760405162461bcd60e51b81526004018080602001828103825260368152602001806142116036913960400191505060405180910390fd5b888a1115610ec75760405162461bcd60e51b815260040180806020018281038252602981526020018061432f6029913960400191505060405180910390fd5b428911610f055760405162461bcd60e51b815260040180806020018281038252602681526020018061419a6026913960400191505060405180910390fd5b600854610f13906001612915565b60088190556000908152600160205260409020610f2f90612abd565b6000610f3a33611418565b9050604051806101c001604052808e6001600160a01b031681526020018d6001600160a01b031681526020018c81526020018b8152602001610f7d838b8d612b01565b815260200188815260200160008152602001600160001b81526020016000801b815260200160006bffffffffffffffffffffffff168152602001600015158152602001861515815260200160095481526020018781525060026000600854815260200190815260200160002060008201518160000160006101000a8154816001600160a01b0302191690836001600160a01b0316021790555060208201518160010160006101000a8154816001600160a01b0302191690836001600160a01b0316021790555060408201518160020155606082015181600301556080820151816004015560a0820151816005015560c0820151816006015560e0820151816007015561010082015181600801556101208201518160090160006101000a8154816bffffffffffffffffffffffff02191690836bffffffffffffffffffffffff16021790555061014082015181600901600c6101000a81548160ff02191690831515021790555061016082015181600901600d6101000a81548160ff02191690831515021790555061018082015181600a01556101a082015181600b01559050508360036000600854815260200190815260200160002060006101000a8154816001600160a01b0302191690836001600160a01b03160217905550826004600060085481526020019081526020016000209080519060200190611180929190613e98565b508b6001600160a01b03168d6001600160a01b03166008547f728d0fed13687f1840de94f5ae640eae49b43eda26b7ffe97e55e79a0de6e40c8e8e868f8f8f8f8e8e604051808a81526020018981526020018867ffffffffffffffff168152602001876bffffffffffffffffffffffff168152602001866bffffffffffffffffffffffff168152602001858152602001848152602001836001600160a01b0316815260200180602001828103825283818151815260200191508051906020019080838360005b8381101561125e578181015183820152602001611246565b50505050905090810190601f16801561128b5780820380516001836020036101000a031916815260200191505b509a505050505050505050505060405180910390a450506008549b9a5050505050505050505050565b6000818152600260205260408120600301544211156112d5575060006112f4565b6000828152600260205260409020600301546112f19042612b60565b90505b919050565b60075467ffffffffffffffff1681565b60075460009061132d906113289067ffffffffffffffff166001612915565b612bbd565b600780547fffffffffffffffffffffffffffffffffffffffffffffffff00000000000000001667ffffffffffffffff9283161790819055611372916005911684612c0a565b6113c3576040805162461bcd60e51b815260206004820152601760248201527f5573657220616c72656164792072656769737465726564000000000000000000604482015290519081900360640190fd5b506007546040805167ffffffffffffffff909216808352905190916001600160a01b038416917f6838f67cb358c332087b73dbe769a6c869a5f87225236c16dda5d0013a77074c9181900360200190a2919050565b6000611425600583612db5565b1561143c57611435600583612de0565b90506112f4565b61144582611309565b9050816001600160a01b03168167ffffffffffffffff167f969d438b19b6b5fb3c0d3c6f16867e519fcec4233799d6be29d1c00f2045ba2660405160405180910390a3919050565b600081815260026020526040812060030154829080158015906114b05750804210155b80156114cb5750600082815260026020526040902060080154155b6115065760405162461bcd60e51b81526004018080602001828103825260288152602001806142b16028913960400191505060405180910390fd5b506000838152600260205260408120600401548190819061152690612e89565b6000898152600260205260408120600681015460079091015494975092955090935090919080845b60008b81526001602052604081206115669086612e98565b90507fffffffffffffffffffffffffffffffffffffffff00000000000000000000000181141561159657506115ef565b8094506115a285612e89565b6bffffffffffffffffffffffff91821696501693506115c390508684612915565b95506115df90506bffffffffffffffffffffffff87168361296f565b6115e9868561296f565b1061154e575b60008511801561161f57506116126bffffffffffffffffffffffff87168361296f565b61161c868561296f565b10155b156116f657600061164c61164585610d796bffffffffffffffffffffffff8b168761296f565b8790612b60565b90508083106116cd5760006116618483612b60565b905061166c81612f44565b60008e815260026020526040902060090180547fffffffffffffffffffffffffffffffffffffffff000000000000000000000000166bffffffffffffffffffffffff929092169190911790556116c28783612b60565b9650859b50506116f0565b6116d78684612b60565b95506116ed6000886116e889612f44565b612b01565b9a505b5061176e565b866bffffffffffffffffffffffff168511156117225761171b6000876116e888612f44565b995061176e565b61172e60008789612b01565b995061176b611766886bffffffffffffffffffffffff16610d79896bffffffffffffffffffffffff168961296f90919063ffffffff16565b612f44565b90505b60008b8152600260205260409020600881018b9055600b01548510156117d55760008b815260026020526040902060090180547fffffffffffffffffffffffffffffffffffffff00ffffffffffffffffffffffff166c010000000000000000000000001790555b6117ef8b826bffffffffffffffffffffffff168a89612f91565b604080516bffffffffffffffffffffffff8084168252871660208201528082018c905290518c917f4d160a2a345f2faeb9ac2e65272820b8ca5473b80aabef416bdf7e07ee7f5910919081900360600190a260008b815260036020908152604080832080547fffffffffffffffffffffffff00000000000000000000000000000000000000001690556004909152812061188891613f12565b5050506000978852505060026020525050604084206004810185905560078101859055600681018590556005019390935550919050565b600082815260026020526040902060030154829080158015906118e25750804210155b80156118fd5750600082815260026020526040902060080154155b6119385760405162461bcd60e51b81526004018080602001828103825260288152602001806142b16028913960400191505060405180910390fd5b5060008381526002602052604081206004015461195490612e89565b6000878152600260205260408120600681015460079091015492955093509091505b858110156119cc5760008781526001602052604090206119969083612e98565b915060006119a383612e89565b92506119c191508590506bffffffffffffffffffffffff8316612915565b935050600101611976565b507fffffffffffffffffffffffffffffffffffffffff000000000000000000000001811415611a42576040805162461bcd60e51b815260206004820152601960248201527f7265616368656420656e64206f66206f72646572206c69737400000000000000604482015290519081900360640190fd5b600080611a4e83612e89565b9250925050611a82816bffffffffffffffffffffffff16866bffffffffffffffffffffffff1661296f90919063ffffffff16565b611a9a856bffffffffffffffffffffffff851661296f565b10611aec576040805162461bcd60e51b815260206004820152601960248201527f746f6f206d616e79206f72646572732073756d6d656420757000000000000000604482015290519081900360640190fd5b5050600095865260026020526040909520600681019190915560070193909355505050565b611b19613108565b6001600160a01b0316611b2a612439565b6001600160a01b031614611b85576040805162461bcd60e51b815260206004820181905260248201527f4f776e61626c653a2063616c6c6572206973206e6f7420746865206f776e6572604482015290519081900360640190fd5b600f821115611bc55760405162461bcd60e51b815260040180806020018281038252602d81526020018061416d602d913960400191505060405180910390fd5b611bce81611418565b600a80547fffffffffffffffffffffffffffffffffffffffffffffffff00000000000000001667ffffffffffffffff9290921691909117905550600955565b600260208190526000918252604090912080546001820154928201546003830154600484015460058501546006860154600787015460088801546009890154600a8a0154600b909a01546001600160a01b03998a169b9099169997989697959694959394929391926bffffffffffffffffffffffff82169260ff6c0100000000000000000000000084048116936d0100000000000000000000000000900416918e565b600a5467ffffffffffffffff1681565b6000828152600160205260408120611cd8908361310c565b90505b92915050565b611ce9613108565b6001600160a01b0316611cfa612439565b6001600160a01b031614611d55576040805162461bcd60e51b815260206004820181905260248201527f4f776e61626c653a2063616c6c6572206973206e6f7420746865206f776e6572604482015290519081900360640190fd5b600080546040516001600160a01b03909116907f8be0079c531659141344cd1fd0a4f28419497f9722a3daafe3b4186f6b6457e0908390a3600080547fffffffffffffffffffffffff0000000000000000000000000000000000000000169055565b60008281526002602052604081206008015481908490611e1e576040805162461bcd60e51b815260206004820152601860248201527f41756374696f6e206e6f74207965742066696e69736865640000000000000000604482015290519081900360640190fd5b60005b8451811015611ebb57611e62858281518110611e3957fe5b60200260200101516001600089815260200190815260200160002061313590919063ffffffff16565b611eb3576040805162461bcd60e51b815260206004820152601c60248201527f6f72646572206973206e6f206c6f6e67657220636c61696d61626c6500000000604482015290519081900360640190fd5b600101611e21565b50611ec4613f59565b50600085815260026020818152604080842081516101c08101835281546001600160a01b0390811682526001830154169381019390935292830154908201526003820154606082015260048201546080820152600582015460a0820152600682015460c0820152600782015460e08201526008820154610100820181905260098301546bffffffffffffffffffffffff811661012084015260ff6c010000000000000000000000008204811615156101408501526d0100000000000000000000000000909104161515610160830152600a830154610180830152600b909201546101a082015291908190611fb790612e89565b92509250506000611fdb88600081518110611fce57fe5b6020026020010151612e89565b505060008a8152600260205260408120600901549192506c0100000000000000000000000090910460ff16905b895181101561225a5760008060006120258d8581518110611fce57fe5b9250925092508567ffffffffffffffff168367ffffffffffffffff161461207d5760405162461bcd60e51b815260040180806020018281038252602381526020018061428e6023913960400191505060405180910390fd5b84156120a25761209b8b6bffffffffffffffffffffffff8316612915565b9a506121e8565b8861010001518d85815181106120b457fe5b602002602001015114156121525761211261210b886bffffffffffffffffffffffff16610d798b6bffffffffffffffffffffffff168d61012001516bffffffffffffffffffffffff1661296f90919063ffffffff16565b8d90612915565b9b5061209b61214b8a61012001516bffffffffffffffffffffffff16836bffffffffffffffffffffffff16612b6090919063ffffffff16565b8c90612915565b61217d8961010001518e868151811061216757fe5b602002602001015161316190919063ffffffff16565b156121cd576121c661210b886bffffffffffffffffffffffff16610d798b6bffffffffffffffffffffffff16856bffffffffffffffffffffffff1661296f90919063ffffffff16565b9b506121e8565b6121e58b6bffffffffffffffffffffffff8316612915565b9a505b8567ffffffffffffffff168e7f3f2c83616e48a2f8b3c9cc26499e2e5c61643714dac49027d82cf6732f96a91a848460405180836bffffffffffffffffffffffff168152602001826bffffffffffffffffffffffff1681526020019250505060405180910390a3505050600101612008565b506122678a898985613314565b5050505050509250929050565b60008281526002602081905260409091200154829042106122c65760405162461bcd60e51b81526004018080602001828103825260328152602001806140ce6032913960400191505060405180910390fd5b60006122d133611418565b90506000805b845181101561240b57600061231a8683815181106122f157fe5b6020026020010151600160008a815260200190815260200160002061337890919063ffffffff16565b90508015612402576000806000612336898681518110611fce57fe5b9250925092508667ffffffffffffffff168367ffffffffffffffff161461238e5760405162461bcd60e51b81526004018080602001828103825260238152602001806140626023913960400191505060405180910390fd5b6123a6866bffffffffffffffffffffffff8316612915565b604080516bffffffffffffffffffffffff808616825284166020820152815192985067ffffffffffffffff8a16928d927f7edae327fe79804b2f38bd490d874a0d188d3ae8911b303205abe47400086ac4928290030190a35050505b506001016122d7565b50600085815260026020526040902060010154612432906001600160a01b031633836133cd565b5050505050565b6000546001600160a01b031690565b6000868152600260205260409020600301548690801580159061246b5750804210155b80156124865750600082815260026020526040902060080154155b6124c15760405162461bcd60e51b81526004018080602001828103825260288152602001806142b16028913960400191505060405180910390fd5b506000878152600260205260409020600901546d0100000000000000000000000000900460ff166125235760405162461bcd60e51b81526004018080602001828103825260288152602001806140096028913960400191505060405180910390fd5b85516001148015612535575084516001145b6125705760405162461bcd60e51b81526004018080602001828103825260278152602001806141c06027913960400191505060405180910390fd5b600061257b33611418565b90506125cb6125b3828960008151811061259157fe5b6020026020010151896000815181106125a657fe5b6020026020010151612b01565b60008a81526002602052604090206007015490613161565b6126065760405162461bcd60e51b81526004018080602001828103825260318152602001806140316031913960400191505060405180910390fd5b61261588888888888833613452565b5061261f8861148d565b505050505050505050565b60085481565b600086815260026020526040812060030154879042106126815760405162461bcd60e51b81526004018080602001828103825260228152602001806143826022913960400191505060405180910390fd5b61269088888888888833613452565b98975050505050505050565b6103e881565b6003602052600090815260409020546001600160a01b031681565b60095481565b600087815260026020526040812060030154889042106127145760405162461bcd60e51b81526004018080602001828103825260228152602001806143826022913960400191505060405180910390fd5b61272389898989898989613452565b9998505050505050505050565b612738613108565b6001600160a01b0316612749612439565b6001600160a01b0316146127a4576040805162461bcd60e51b815260206004820181905260248201527f4f776e61626c653a2063616c6c6572206973206e6f7420746865206f776e6572604482015290519081900360640190fd5b6001600160a01b0381166127e95760405162461bcd60e51b81526004018080602001828103825260268152602001806140856026913960400191505060405180910390fd5b600080546040516001600160a01b03808516939216917f8be0079c531659141344cd1fd0a4f28419497f9722a3daafe3b4186f6b6457e091a3600080547fffffffffffffffffffffffff0000000000000000000000000000000000000000166001600160a01b0392909216919091179055565b60046020908152600091825260409182902080548351601f60027fffffffffffffffffffffffffffffffffffffffffffffffffffffffffffffffff6101006001861615020190931692909204918201849004840281018401909452808452909183018282801561290d5780601f106128e25761010080835404028352916020019161290d565b820191906000526020600020905b8154815290600101906020018083116128f057829003601f168201915b505050505081565b600082820183811015611cd8576040805162461bcd60e51b815260206004820152601b60248201527f536166654d6174683a206164646974696f6e206f766572666c6f770000000000604482015290519081900360640190fd5b60008261297e57506000611cdb565b8282028284828161298b57fe5b0414611cd85760405162461bcd60e51b81526004018080602001828103825260218152602001806142476021913960400191505060405180910390fd5b6000808211612a1e576040805162461bcd60e51b815260206004820152601a60248201527f536166654d6174683a206469766973696f6e206279207a65726f000000000000604482015290519081900360640190fd5b818381612a2757fe5b049392505050565b604080516001600160a01b0380861660248301528416604482015260648082018490528251808303909101815260849091019091526020810180517bffffffffffffffffffffffffffffffffffffffffffffffffffffffff167f23b872dd00000000000000000000000000000000000000000000000000000000179052612ab790859061391c565b50505050565b60016000818152602083815260408083207fffffffffffffffffffffffffffffffffffffffff00000000000000000000000190819055835293830190529190912055565b7fffffffffffffffff00000000000000000000000000000000000000000000000060c084901b1677ffffffffffffffffffffffff000000000000000000000000606084901b16016bffffffffffffffffffffffff8216015b9392505050565b600082821115612bb7576040805162461bcd60e51b815260206004820152601e60248201527f536166654d6174683a207375627472616374696f6e206f766572666c6f770000604482015290519081900360640190fd5b50900390565b6000680100000000000000008210612c065760405162461bcd60e51b81526004018080602001828103825260268152602001806142686026913960400191505060405180910390fd5b5090565b60006001600160a01b038216612c67576040805162461bcd60e51b815260206004820152601a60248201527f43616e6e6f7420696e73657274207a65726f2061646472657373000000000000604482015290519081900360640190fd5b67ffffffffffffffff8381161415612cc6576040805162461bcd60e51b815260206004820152601860248201527f43616e6e6f7420696e73657274206d61782075696e7436340000000000000000604482015290519081900360640190fd5b6001600160a01b038216600090815260018501602052604090205467ffffffffffffffff16151580612d1c575067ffffffffffffffff60018401166000908152602085905260409020546001600160a01b031615155b15612d2957506000612b59565b50600191820167ffffffffffffffff1660008181526020858152604080832080547fffffffffffffffffffffffff0000000000000000000000000000000000000000166001600160a01b03969096169586179055938252948401909452922080547fffffffffffffffffffffffffffffffffffffffffffffffff00000000000000001690921790915590565b6001600160a01b03166000908152600191909101602052604090205467ffffffffffffffff16151590565b6000612dec8383612db5565b612e3d576040805162461bcd60e51b815260206004820152601b60248201527f4d7573742068617665204164647265737320746f206765742049440000000000604482015290519081900360640190fd5b506001600160a01b03166000908152600191909101602052604090205467ffffffffffffffff167fffffffffffffffffffffffffffffffffffffffffffffffffffffffffffffffff0190565b60c081901c91606082901c9190565b60007fffffffffffffffffffffffffffffffffffffffff000000000000000000000001821415612ef95760405162461bcd60e51b81526004018080602001828103825260228152602001806141256022913960400191505060405180910390fd5b60008281526020849052604090205480611cd85760405162461bcd60e51b815260040180806020018281038252602a8152602001806141e7602a913960400191505060405180910390fd5b60006c010000000000000000000000008210612c065760405162461bcd60e51b8152600401808060200182810382526026815260200180613fe36026913960400191505060405180910390fd5b6000848152600260205260408120600a0154612fc4906103e890610d79906bffffffffffffffffffffffff86169061296f565b6000868152600260205260409020600901549091506c01000000000000000000000000900460ff161561301a576130158561300d6bffffffffffffffffffffffff851684612915565b600086613314565b612432565b600085815260026020526040812060080154819061303790612e89565b9093509150600090506130586bffffffffffffffffffffffff861688612b60565b9050600061308261307b6bffffffffffffffffffffffff8816610d79888661296f565b8390612915565b905060006130b9856bffffffffffffffffffffffff16610d79866bffffffffffffffffffffffff168c61296f90919063ffffffff16565b90506130c78a83838b613314565b6130fc8a6130e76bffffffffffffffffffffffff8a16610d798a8e61296f565b600a5460009067ffffffffffffffff16613314565b50505050505050505050565b3390565b6000600182141561311f57506000611cdb565b5060009081526020919091526040902054151590565b6000806131428484613378565b90508015611cd857600092835260019390930160205250604081205590565b60008060008061317086612e89565b925092509250600080600061318488612e89565b919450925090506131a66bffffffffffffffffffffffff80841690861661296f565b6131c16bffffffffffffffffffffffff87811690841661296f565b10156131d65760019650505050505050611cdb565b6131f16bffffffffffffffffffffffff83811690861661296f565b61320c6bffffffffffffffffffffffff87811690841661296f565b11156132215760009650505050505050611cdb565b816bffffffffffffffffffffffff16856bffffffffffffffffffffffff1610156132545760019650505050505050611cdb565b816bffffffffffffffffffffffff16856bffffffffffffffffffffffff1611156132875760009650505050505050611cdb565b8267ffffffffffffffff168667ffffffffffffffff1614156132da5760405162461bcd60e51b815260040180806020018281038252602d8152602001806142d9602d913960400191505060405180910390fd5b8267ffffffffffffffff168667ffffffffffffffff1610156133055760019650505050505050611cdb565b50600098975050505050505050565b60006133216005836139cd565b9050831561334c5760008581526002602052604090205461334c906001600160a01b031682866133cd565b821561243257600085815260026020526040902060010154612432906001600160a01b031682856133cd565b6000613384838361310c565b61339057506000611cdb565b5060008181526001838101602081815260408085205487835281862080548288528388208190558752938352908520559383529390925290915590565b604080516001600160a01b038416602482015260448082018490528251808303909101815260649091019091526020810180517bffffffffffffffffffffffffffffffffffffffffffffffffffffffff167fa9059cbb0000000000000000000000000000000000000000000000000000000017905261344d90849061391c565b505050565b6000878152600360205260408120546001600160a01b031680156135c0576319a05a7e60e01b7bffffffffffffffffffffffffffffffffffffffffffffffffffffffff1916816001600160a01b03166319a05a7e858c89896040518563ffffffff1660e01b815260040180856001600160a01b03168152602001848152602001806020018281038252848482818152602001925080828437600081840152601f19601f8201169050808301925050509550505050505060206040518083038186803b15801561352057600080fd5b505afa158015613534573d6000803e3d6000fd5b505050506040513d602081101561354a57600080fd5b50517fffffffff0000000000000000000000000000000000000000000000000000000016146135c0576040805162461bcd60e51b815260206004820152601f60248201527f75736572206e6f7420616c6c6f77656420746f20706c616365206f7264657200604482015290519081900360640190fd5b5060008881526002602052604081206004015481906135de90612e89565b925092505060005b89518110156136b7576136318982815181106135fe57fe5b60200260200101516bffffffffffffffffffffffff16836bffffffffffffffffffffffff1661296f90919063ffffffff16565b613673846bffffffffffffffffffffffff168c848151811061364f57fe5b60200260200101516bffffffffffffffffffffffff1661296f90919063ffffffff16565b106136af5760405162461bcd60e51b81526004018080602001828103825260298152602001806143066029913960400191505060405180910390fd5b6001016135e6565b50505060006136c583611418565b60008a8152600260205260408120600501549193505b89518110156138e75760008a82815181106136f257fe5b60200260200101516bffffffffffffffffffffffff16116137445760405162461bcd60e51b81526004018080602001828103825260258152602001806141006025913960400191505060405180910390fd5b8189828151811061375157fe5b60200260200101516bffffffffffffffffffffffff16116137b9576040805162461bcd60e51b815260206004820152600f60248201527f6f7264657220746f6f20736d616c6c0000000000000000000000000000000000604482015290519081900360640190fd5b6138166137e0858c84815181106137cc57fe5b60200260200101518c85815181106125a657fe5b8983815181106137ec57fe5b6020026020010151600160008f8152602001908152602001600020613a549092919063ffffffff16565b156138df5761384f89828151811061382a57fe5b60200260200101516bffffffffffffffffffffffff168461291590919063ffffffff16565b92508367ffffffffffffffff168b7f9304f2fc7ed6d42c0400e678dbc7283e1e9054889c3afea5f965adff66ef9eac8c848151811061388a57fe5b60200260200101518c858151811061389e57fe5b602002602001015160405180836bffffffffffffffffffffffff168152602001826bffffffffffffffffffffffff1681526020019250505060405180910390a35b6001016136db565b5060008a81526002602052604090206001015461390f906001600160a01b0316333085612a2f565b5050979650505050505050565b6060613971826040518060400160405280602081526020017f5361666545524332303a206c6f772d6c6576656c2063616c6c206661696c6564815250856001600160a01b0316613c329092919063ffffffff16565b80519091501561344d5780806020019051602081101561399057600080fd5b505161344d5760405162461bcd60e51b815260040180806020018281038252602a815260200180614358602a913960400191505060405180910390fd5b60006139d98383613c49565b613a2a576040805162461bcd60e51b815260206004820152601b60248201527f4d757374206861766520494420746f2067657420416464726573730000000000604482015290519081900360640190fd5b5060010167ffffffffffffffff16600090815260209190915260409020546001600160a01b031690565b600080613a6084612e89565b925050506bffffffffffffffffffffffff8116613ac4576040805162461bcd60e51b815260206004820152601f60248201527f496e73657274696e67207a65726f206973206e6f7420737570706f7274656400604482015290519081900360640190fd5b60018414801590613af557507fffffffffffffffffffffffffffffffffffffffff0000000000000000000000018414155b613b46576040805162461bcd60e51b815260206004820152601e60248201527f496e73657274696e6720656c656d656e74206973206e6f742076616c69640000604482015290519081900360640190fd5b613b50858561310c565b15613b5f576000915050612b59565b60018314801590613b7e57506000838152600186016020526040902054155b15613b8d576000915050612b59565b613b978385613161565b613ba5576000915050612b59565b5b600083815260208690526040902054613bd15760009283526001850160205260409092205491613ba6565b6000835b600081815260208890526040902054909150613bf18187613161565b613bd5576000828152602088815260408083208990558383526001808b0183528184208a905589845281842095909555908990529020559150509392505050565b6060613c418484600085613c74565b949350505050565b60010167ffffffffffffffff16600090815260209190915260409020546001600160a01b0316151590565b606082471015613cb55760405162461bcd60e51b81526004018080602001828103825260268152602001806141476026913960400191505060405180910390fd5b613cbe85613dee565b613d0f576040805162461bcd60e51b815260206004820152601d60248201527f416464726573733a2063616c6c20746f206e6f6e2d636f6e7472616374000000604482015290519081900360640190fd5b60006060866001600160a01b031685876040518082805190602001908083835b60208310613d6c57805182527fffffffffffffffffffffffffffffffffffffffffffffffffffffffffffffffe09092019160209182019101613d2f565b6001836020036101000a03801982511681845116808217855250505050505090500191505060006040518083038185875af1925050503d8060008114613dce576040519150601f19603f3d011682016040523d82523d6000602084013e613dd3565b606091505b5091509150613de3828286613df4565b979650505050505050565b3b151590565b60608315613e03575081612b59565b825115613e135782518084602001fd5b8160405162461bcd60e51b81526004018080602001828103825283818151815260200191508051906020019080838360005b83811015613e5d578181015183820152602001613e45565b50505050905090810190601f168015613e8a5780820380516001836020036101000a031916815260200191505b509250505060405180910390fd5b828054600181600116156101000203166002900490600052602060002090601f016020900481019282601f10613ed957805160ff1916838001178555613f06565b82800160010185558215613f06579182015b82811115613f06578251825591602001919060010190613eeb565b50612c06929150613fcd565b50805460018160011615610100020316600290046000825580601f10613f385750613f56565b601f016020900490600052602060002090810190613f569190613fcd565b50565b604080516101c081018252600080825260208201819052918101829052606081018290526080810182905260a0810182905260c0810182905260e08101829052610100810182905261012081018290526101408101829052610160810182905261018081018290526101a081019190915290565b5b80821115612c065760008155600101613fce56fe53616665436173743a2076616c756520646f65736e27742066697420696e20393620626974736e6f7420616c6c6f77656420746f20736574746c652061756374696f6e2061746f6d6963616c6c7970726563616c63756c61746553656c6c416d6f756e7453756d20697320616c726561647920746f6f20616476616e6365644f6e6c792074686520757365722063616e2063616e63656c20686973206f72646572734f776e61626c653a206e6577206f776e657220697320746865207a65726f2061646472657373746f6b656e732063616e6e6f742062652061756374696f6e656420666f7220667265656e6f206c6f6e67657220696e206f7264657220706c6163656d656e7420616e642063616e63656c6174696f6e2070686173655f6d696e427579416d6f756e7473206d7573742062652067726561746572207468616e2030547279696e6720746f20676574206e657874206f66206c61737420656c656d656e74416464726573733a20696e73756666696369656e742062616c616e636520666f722063616c6c466565206973206e6f7420616c6c6f77656420746f2062652073657420686967686572207468616e20312e352561756374696f6e20656e642064617465206d75737420626520696e20746865206675747572654f6e6c79206f6e65206f726465722063616e20626520706c616365642061746f6d6963616c6c79547279696e6720746f20676574206e657874206f66206e6f6e2d6578697374656e7420656c656d656e746d696e696d756d42696464696e67416d6f756e745065724f72646572206973206e6f7420616c6c6f77656420746f206265207a65726f536166654d6174683a206d756c7469706c69636174696f6e206f766572666c6f7753616665436173743a2076616c756520646f65736e27742066697420696e20363420626974736f6e6c7920616c6c6f77656420746f20636c61696d20666f722073616d65207573657241756374696f6e206e6f7420696e20736f6c7574696f6e207375626d697373696f6e20706861736575736572206973206e6f7420616c6c6f77656420746f20706c6163652073616d65206f726465722074776963656c696d6974207072696365206e6f7420626574746572207468616e206d696d696d616c206f6666657274696d6520706572696f647320617265206e6f7420636f6e6669677572656420636f72726563746c795361666545524332303a204552433230206f7065726174696f6e20646964206e6f7420737563636565646e6f206c6f6e67657220696e206f7264657220706c6163656d656e74207068617365a2646970667358221220caa426876499663f7bb8232e823c65a0d6c91fb53aa40e08e5738c3e636d82ca64736f6c634300060c0033",
  "linkReferences": {},
  "deployedLinkReferences": {}
}